{
  "contractName": "FreeCoin",
  "abi": [
    {
      "constant": true,
      "inputs": [],
      "name": "name",
      "outputs": [
        {
          "name": "",
          "type": "string"
        }
      ],
      "payable": false,
      "stateMutability": "view",
      "type": "function"
    },
    {
      "constant": false,
      "inputs": [
        {
          "name": "_to",
          "type": "address"
        },
        {
          "name": "_tokenId",
          "type": "uint256"
        }
      ],
      "name": "approve",
      "outputs": [],
      "payable": false,
      "stateMutability": "nonpayable",
      "type": "function"
    },
    {
      "constant": true,
      "inputs": [],
      "name": "totalSupply",
      "outputs": [
        {
          "name": "",
          "type": "uint256"
        }
      ],
      "payable": false,
      "stateMutability": "view",
      "type": "function"
    },
    {
      "constant": true,
      "inputs": [
        {
          "name": "_owner",
          "type": "address"
        },
        {
          "name": "_index",
          "type": "uint256"
        }
      ],
      "name": "tokenOfOwnerByIndex",
      "outputs": [
        {
          "name": "_tokenId",
          "type": "uint256"
        }
      ],
      "payable": false,
      "stateMutability": "view",
      "type": "function"
    },
    {
      "constant": false,
      "inputs": [],
      "name": "distributeToken",
      "outputs": [],
      "payable": false,
      "stateMutability": "nonpayable",
      "type": "function"
    },
    {
      "constant": true,
      "inputs": [],
      "name": "_totalSupply",
      "outputs": [
        {
          "name": "",
          "type": "uint24"
        }
      ],
      "payable": false,
      "stateMutability": "view",
      "type": "function"
    },
    {
      "constant": true,
      "inputs": [
        {
          "name": "",
          "type": "uint256"
        }
      ],
      "name": "approvals",
      "outputs": [
        {
          "name": "",
          "type": "address"
        }
      ],
      "payable": false,
      "stateMutability": "view",
      "type": "function"
    },
    {
      "constant": true,
      "inputs": [
        {
          "name": "_tokenId",
          "type": "uint256"
        }
      ],
      "name": "ownerOf",
      "outputs": [
        {
          "name": "_owner",
          "type": "address"
        }
      ],
      "payable": false,
      "stateMutability": "view",
      "type": "function"
    },
    {
      "constant": true,
      "inputs": [
        {
          "name": "_tokenId",
          "type": "uint256"
        }
      ],
      "name": "tokenMetadata",
      "outputs": [
        {
          "name": "_infoUrl",
          "type": "string"
        }
      ],
      "payable": false,
      "stateMutability": "view",
      "type": "function"
    },
    {
      "constant": true,
      "inputs": [
        {
          "name": "",
          "type": "uint256"
        }
      ],
      "name": "registeredAddresses",
      "outputs": [
        {
          "name": "",
          "type": "address"
        }
      ],
      "payable": false,
      "stateMutability": "view",
      "type": "function"
    },
    {
      "constant": true,
      "inputs": [
        {
          "name": "_owner",
          "type": "address"
        }
      ],
      "name": "balanceOf",
      "outputs": [
        {
          "name": "_balance",
          "type": "uint256"
        }
      ],
      "payable": false,
      "stateMutability": "view",
      "type": "function"
    },
    {
      "constant": true,
      "inputs": [],
      "name": "distributionInterval",
      "outputs": [
        {
          "name": "",
          "type": "uint256"
        }
      ],
      "payable": false,
      "stateMutability": "view",
      "type": "function"
    },
    {
      "constant": false,
      "inputs": [],
      "name": "acceptOwnership",
      "outputs": [],
      "payable": false,
      "stateMutability": "nonpayable",
      "type": "function"
    },
    {
      "constant": false,
      "inputs": [
        {
          "name": "addresses",
          "type": "address[]"
        }
      ],
      "name": "registerAddresses",
      "outputs": [],
      "payable": false,
      "stateMutability": "nonpayable",
      "type": "function"
    },
    {
      "constant": false,
      "inputs": [],
      "name": "blockNum",
      "outputs": [
        {
          "name": "",
          "type": "uint256"
        }
      ],
      "payable": false,
      "stateMutability": "nonpayable",
      "type": "function"
    },
    {
      "constant": true,
      "inputs": [],
      "name": "owner",
      "outputs": [
        {
          "name": "",
          "type": "address"
        }
      ],
      "payable": false,
      "stateMutability": "view",
      "type": "function"
    },
    {
      "constant": true,
      "inputs": [],
      "name": "symbol",
      "outputs": [
        {
          "name": "",
          "type": "string"
        }
      ],
      "payable": false,
      "stateMutability": "view",
      "type": "function"
    },
    {
      "constant": true,
      "inputs": [
        {
          "name": "",
          "type": "uint256"
        }
      ],
      "name": "ownerByTokenId",
      "outputs": [
        {
          "name": "",
          "type": "address"
        }
      ],
      "payable": false,
      "stateMutability": "view",
      "type": "function"
    },
    {
      "constant": false,
      "inputs": [
        {
          "name": "_to",
          "type": "address"
        },
        {
          "name": "_tokenId",
          "type": "uint256"
        }
      ],
      "name": "transfer",
      "outputs": [],
      "payable": false,
      "stateMutability": "nonpayable",
      "type": "function"
    },
    {
      "constant": false,
      "inputs": [
        {
          "name": "_tokenId",
          "type": "uint256"
        }
      ],
      "name": "takeOwnership",
      "outputs": [],
      "payable": false,
      "stateMutability": "nonpayable",
      "type": "function"
    },
    {
      "constant": true,
      "inputs": [],
      "name": "lastDistributionBlockNum",
      "outputs": [
        {
          "name": "",
          "type": "uint256"
        }
      ],
      "payable": false,
      "stateMutability": "view",
      "type": "function"
    },
    {
      "constant": true,
      "inputs": [],
      "name": "newOwner",
      "outputs": [
        {
          "name": "",
          "type": "address"
        }
      ],
      "payable": false,
      "stateMutability": "view",
      "type": "function"
    },
    {
      "constant": true,
      "inputs": [],
      "name": "maxSupply",
      "outputs": [
        {
          "name": "",
          "type": "uint24"
        }
      ],
      "payable": false,
      "stateMutability": "view",
      "type": "function"
    },
    {
      "constant": false,
      "inputs": [
        {
          "name": "_newOwner",
          "type": "address"
        }
      ],
      "name": "transferOwnership",
      "outputs": [],
      "payable": false,
      "stateMutability": "nonpayable",
      "type": "function"
    },
    {
      "inputs": [],
      "payable": false,
      "stateMutability": "nonpayable",
      "type": "constructor"
    },
    {
      "anonymous": false,
      "inputs": [
        {
          "indexed": true,
          "name": "_from",
          "type": "address"
        },
        {
          "indexed": true,
          "name": "_to",
          "type": "address"
        },
        {
          "indexed": false,
          "name": "_tokenId",
          "type": "uint256"
        }
      ],
      "name": "Transfer",
      "type": "event"
    },
    {
      "anonymous": false,
      "inputs": [
        {
          "indexed": true,
          "name": "_owner",
          "type": "address"
        },
        {
          "indexed": true,
          "name": "_approved",
          "type": "address"
        },
        {
          "indexed": false,
          "name": "_tokenId",
          "type": "uint256"
        }
      ],
      "name": "Approval",
      "type": "event"
    },
    {
      "anonymous": false,
      "inputs": [
        {
          "indexed": true,
          "name": "_from",
          "type": "address"
        },
        {
          "indexed": true,
          "name": "_to",
          "type": "address"
        }
      ],
      "name": "OwnershipTransferred",
      "type": "event"
    }
  ],
  "bytecode": "0x606060405234156200001057600080fd5b336000806101000a81548173ffffffffffffffffffffffffffffffffffffffff021916908373ffffffffffffffffffffffffffffffffffffffff1602179055506040805190810160405280600881526020017f46726565436f696e000000000000000000000000000000000000000000000000815250600290805190602001906200009d92919062000146565b506040805190810160405280600481526020017f465245450000000000000000000000000000000000000000000000000000000081525060039080519060200190620000eb92919062000146565b506000600460006101000a81548162ffffff021916908362ffffff160217905550620f4240600460036101000a81548162ffffff021916908362ffffff160217905550600260078190555060014301600681905550620001f5565b828054600181600116156101000203166002900490600052602060002090601f016020900481019282601f106200018957805160ff1916838001178555620001ba565b82800160010185558215620001ba579182015b82811115620001b95782518255916020019190600101906200019c565b5b509050620001c99190620001cd565b5090565b620001f291905b80821115620001ee576000816000905550600101620001d4565b5090565b90565b61177480620002056000396000f30060606040526004361061013e576000357c0100000000000000000000000000000000000000000000000000000000900463ffffffff16806306fdde0314610143578063095ea7b3146101d157806318160ddd146102135780632f745c591461023c57806334273637146102925780633eaaf86b146102a757806363035f66146102da5780636352211e1461033d5780636914db60146103a05780636e9b85551461043c57806370a082311461049f57806371201a0e146104ec57806379ba509714610515578063846153b51461052a5780638ae63d6d146105845780638da5cb5b146105ad57806395d89b411461060257806396e4935714610690578063a9059cbb146106f3578063b2e6ceeb14610735578063c6c3c23114610758578063d4ee1d9014610781578063d5abeb01146107d6578063f2fde38b14610809575b600080fd5b341561014e57600080fd5b610156610842565b6040518080602001828103825283818151815260200191508051906020019080838360005b8381101561019657808201518184015260208101905061017b565b50505050905090810190601f1680156101c35780820380516001836020036101000a031916815260200191505b509250505060405180910390f35b34156101dc57600080fd5b610211600480803573ffffffffffffffffffffffffffffffffffffffff169060200190919080359060200190919050506108e0565b005b341561021e57600080fd5b610226610a6f565b6040518082815260200191505060405180910390f35b341561024757600080fd5b61027c600480803573ffffffffffffffffffffffffffffffffffffffff16906020019091908035906020019091905050610a8d565b6040518082815260200191505060405180910390f35b341561029d57600080fd5b6102a5610b52565b005b34156102b257600080fd5b6102ba610d4a565b604051808262ffffff1662ffffff16815260200191505060405180910390f35b34156102e557600080fd5b6102fb6004808035906020019091905050610d5f565b604051808273ffffffffffffffffffffffffffffffffffffffff1673ffffffffffffffffffffffffffffffffffffffff16815260200191505060405180910390f35b341561034857600080fd5b61035e6004808035906020019091905050610d92565b604051808273ffffffffffffffffffffffffffffffffffffffff1673ffffffffffffffffffffffffffffffffffffffff16815260200191505060405180910390f35b34156103ab57600080fd5b6103c16004808035906020019091905050610dfa565b6040518080602001828103825283818151815260200191508051906020019080838360005b838110156104015780820151818401526020810190506103e6565b50505050905090810190601f16801561042e5780820380516001836020036101000a031916815260200191505b509250505060405180910390f35b341561044757600080fd5b61045d6004808035906020019091905050610e1a565b604051808273ffffffffffffffffffffffffffffffffffffffff1673ffffffffffffffffffffffffffffffffffffffff16815260200191505060405180910390f35b34156104aa57600080fd5b6104d6600480803573ffffffffffffffffffffffffffffffffffffffff16906020019091905050610e59565b6040518082815260200191505060405180910390f35b34156104f757600080fd5b6104ff610f07565b6040518082815260200191505060405180910390f35b341561052057600080fd5b610528610f0d565b005b341561053557600080fd5b6105826004808035906020019082018035906020019080806020026020016040519081016040528093929190818152602001838360200280828437820191505050505050919050506110ac565b005b341561058f57600080fd5b6105976111a2565b6040518082815260200191505060405180910390f35b34156105b857600080fd5b6105c06111aa565b604051808273ffffffffffffffffffffffffffffffffffffffff1673ffffffffffffffffffffffffffffffffffffffff16815260200191505060405180910390f35b341561060d57600080fd5b6106156111cf565b6040518080602001828103825283818151815260200191508051906020019080838360005b8381101561065557808201518184015260208101905061063a565b50505050905090810190601f1680156106825780820380516001836020036101000a031916815260200191505b509250505060405180910390f35b341561069b57600080fd5b6106b1600480803590602001909190505061126d565b604051808273ffffffffffffffffffffffffffffffffffffffff1673ffffffffffffffffffffffffffffffffffffffff16815260200191505060405180910390f35b34156106fe57600080fd5b610733600480803573ffffffffffffffffffffffffffffffffffffffff169060200190919080359060200190919050506112ac565b005b341561074057600080fd5b610756600480803590602001909190505061143f565b005b341561076357600080fd5b61076b6115e3565b6040518082815260200191505060405180910390f35b341561078c57600080fd5b6107946115e9565b604051808273ffffffffffffffffffffffffffffffffffffffff1673ffffffffffffffffffffffffffffffffffffffff16815260200191505060405180910390f35b34156107e157600080fd5b6107e961160f565b604051808262ffffff1662ffffff16815260200191505060405180910390f35b341561081457600080fd5b610840600480803573ffffffffffffffffffffffffffffffffffffffff16906020019091905050611624565b005b60028054600181600116156101000203166002900480601f0160208091040260200160405190810160405280929190818152602001828054600181600116156101000203166002900480156108d85780601f106108ad576101008083540402835291602001916108d8565b820191906000526020600020905b8154815290600101906020018083116108bb57829003601f168201915b505050505081565b60006108eb82610d92565b73ffffffffffffffffffffffffffffffffffffffff163373ffffffffffffffffffffffffffffffffffffffff1614151561092457600080fd5b6009600083815260200190815260200160002060009054906101000a900473ffffffffffffffffffffffffffffffffffffffff169050826009600084815260200190815260200160002060006101000a81548173ffffffffffffffffffffffffffffffffffffffff021916908373ffffffffffffffffffffffffffffffffffffffff160217905550600073ffffffffffffffffffffffffffffffffffffffff168373ffffffffffffffffffffffffffffffffffffffff161415806109ff575060008173ffffffffffffffffffffffffffffffffffffffff1614155b15610a6a578273ffffffffffffffffffffffffffffffffffffffff163373ffffffffffffffffffffffffffffffffffffffff167f8c5be1e5ebec7d5bd14f71427d1e84f3dd0314c0f7b2291e5b200ac8c7c3b925846040518082815260200191505060405180910390a35b505050565b6000600460009054906101000a900462ffffff1662ffffff16905090565b6000806000809150600090505b600460009054906101000a900462ffffff1662ffffff16811015610b4a578473ffffffffffffffffffffffffffffffffffffffff16600582815481101515610ade57fe5b906000526020600020900160009054906101000a900473ffffffffffffffffffffffffffffffffffffffff1673ffffffffffffffffffffffffffffffffffffffff161415610b3d5760018201915083821415610b3c57819250610b4a565b5b8080600101915050610a9a565b505092915050565b6000806000806007546006544303811515610b6957fe5b049350600084111515610b7b57600080fd5b600460039054906101000a900462ffffff1662ffffff16600460009054906101000a900462ffffff1662ffffff16101515610bb557600080fd5b436006819055505b6000841115610d4457600754600185030260014303039250610be4836008805490506116c3565b9150600882815481101515610bf557fe5b906000526020600020900160009054906101000a900473ffffffffffffffffffffffffffffffffffffffff16905060058054806001018281610c3791906116e3565b9160005260206000209001600083909190916101000a81548173ffffffffffffffffffffffffffffffffffffffff021916908373ffffffffffffffffffffffffffffffffffffffff160217905550508073ffffffffffffffffffffffffffffffffffffffff16600073ffffffffffffffffffffffffffffffffffffffff167fddf252ad1be2c89b69c2b068fc378daa952ba7f163c4a11628f55a4df523b3ef600460009054906101000a900462ffffff16604051808262ffffff16815260200191505060405180910390a36001600460008282829054906101000a900462ffffff160192506101000a81548162ffffff021916908362ffffff160217905550838060019003945050610bbd565b50505050565b600460009054906101000a900462ffffff1681565b60096020528060005260406000206000915054906101000a900473ffffffffffffffffffffffffffffffffffffffff1681565b6000600460009054906101000a900462ffffff1662ffffff1682101515610db857600080fd5b600582815481101515610dc757fe5b906000526020600020900160009054906101000a900473ffffffffffffffffffffffffffffffffffffffff169050919050565b610e0261170f565b60206040519081016040528060008152509050919050565b600881815481101515610e2957fe5b90600052602060002090016000915054906101000a900473ffffffffffffffffffffffffffffffffffffffff1681565b600080600090505b600460009054906101000a900462ffffff1662ffffff16811015610f01578273ffffffffffffffffffffffffffffffffffffffff16600582815481101515610ea557fe5b906000526020600020900160009054906101000a900473ffffffffffffffffffffffffffffffffffffffff1673ffffffffffffffffffffffffffffffffffffffff161415610ef4576001820191505b8080600101915050610e61565b50919050565b60075481565b600160009054906101000a900473ffffffffffffffffffffffffffffffffffffffff1673ffffffffffffffffffffffffffffffffffffffff163373ffffffffffffffffffffffffffffffffffffffff16141515610f6957600080fd5b600160009054906101000a900473ffffffffffffffffffffffffffffffffffffffff1673ffffffffffffffffffffffffffffffffffffffff166000809054906101000a900473ffffffffffffffffffffffffffffffffffffffff1673ffffffffffffffffffffffffffffffffffffffff167f8be0079c531659141344cd1fd0a4f28419497f9722a3daafe3b4186f6b6457e060405160405180910390a3600160009054906101000a900473ffffffffffffffffffffffffffffffffffffffff166000806101000a81548173ffffffffffffffffffffffffffffffffffffffff021916908373ffffffffffffffffffffffffffffffffffffffff1602179055506000600160006101000a81548173ffffffffffffffffffffffffffffffffffffffff021916908373ffffffffffffffffffffffffffffffffffffffff160217905550565b60008060009054906101000a900473ffffffffffffffffffffffffffffffffffffffff1673ffffffffffffffffffffffffffffffffffffffff163373ffffffffffffffffffffffffffffffffffffffff1614151561110957600080fd5b600090505b815181101561119e576008805480600101828161112b91906116e3565b91600052602060002090016000848481518110151561114657fe5b90602001906020020151909190916101000a81548173ffffffffffffffffffffffffffffffffffffffff021916908373ffffffffffffffffffffffffffffffffffffffff16021790555050808060010191505061110e565b5050565b600043905090565b6000809054906101000a900473ffffffffffffffffffffffffffffffffffffffff1681565b60038054600181600116156101000203166002900480601f0160208091040260200160405190810160405280929190818152602001828054600181600116156101000203166002900480156112655780601f1061123a57610100808354040283529160200191611265565b820191906000526020600020905b81548152906001019060200180831161124857829003601f168201915b505050505081565b60058181548110151561127c57fe5b90600052602060002090016000915054906101000a900473ffffffffffffffffffffffffffffffffffffffff1681565b6112b581610d92565b73ffffffffffffffffffffffffffffffffffffffff163373ffffffffffffffffffffffffffffffffffffffff161415156112ee57600080fd5b600073ffffffffffffffffffffffffffffffffffffffff168273ffffffffffffffffffffffffffffffffffffffff161415151561132a57600080fd5b60006009600083815260200190815260200160002060006101000a81548173ffffffffffffffffffffffffffffffffffffffff021916908373ffffffffffffffffffffffffffffffffffffffff1602179055508160058281548110151561138d57fe5b906000526020600020900160006101000a81548173ffffffffffffffffffffffffffffffffffffffff021916908373ffffffffffffffffffffffffffffffffffffffff1602179055508173ffffffffffffffffffffffffffffffffffffffff163373ffffffffffffffffffffffffffffffffffffffff167fddf252ad1be2c89b69c2b068fc378daa952ba7f163c4a11628f55a4df523b3ef836040518082815260200191505060405180910390a35050565b60003373ffffffffffffffffffffffffffffffffffffffff1661146183610d92565b73ffffffffffffffffffffffffffffffffffffffff161415151561148457600080fd5b3373ffffffffffffffffffffffffffffffffffffffff166009600084815260200190815260200160002060009054906101000a900473ffffffffffffffffffffffffffffffffffffffff1673ffffffffffffffffffffffffffffffffffffffff161415156114f157600080fd5b6009600083815260200190815260200160002060009054906101000a900473ffffffffffffffffffffffffffffffffffffffff16905060006009600084815260200190815260200160002060006101000a81548173ffffffffffffffffffffffffffffffffffffffff021916908373ffffffffffffffffffffffffffffffffffffffff1602179055503373ffffffffffffffffffffffffffffffffffffffff168173ffffffffffffffffffffffffffffffffffffffff167fddf252ad1be2c89b69c2b068fc378daa952ba7f163c4a11628f55a4df523b3ef846040518082815260200191505060405180910390a35050565b60065481565b600160009054906101000a900473ffffffffffffffffffffffffffffffffffffffff1681565b600460039054906101000a900462ffffff1681565b6000809054906101000a900473ffffffffffffffffffffffffffffffffffffffff1673ffffffffffffffffffffffffffffffffffffffff163373ffffffffffffffffffffffffffffffffffffffff1614151561167f57600080fd5b80600160006101000a81548173ffffffffffffffffffffffffffffffffffffffff021916908373ffffffffffffffffffffffffffffffffffffffff16021790555050565b600080834090508281600190048115156116d957fe5b0691505092915050565b81548183558181151161170a578183600052602060002091820191016117099190611723565b5b505050565b602060405190810160405280600081525090565b61174591905b80821115611741576000816000905550600101611729565b5090565b905600a165627a7a723058200f217e4c123d2bc7c4aa30a5da12c7ce430919240237812fc370158785462c640029",
  "source": "pragma solidity ^0.4.0;\n\nimport \"./ERC721Interface.sol\";\nimport \"./Owned.sol\";\n\ncontract FreeCoin is ERC721Interface, Owned {\n    string public name;\n    string public symbol;\n\n    uint24 public _totalSupply;\n    uint24 public maxSupply;\n\n    address[] public ownerByTokenId;\n\n    uint public lastDistributionBlockNum;\n\n    uint public distributionInterval;\n    address[] public registeredAddresses;\n\n    mapping (uint => address) public approvals;\n\n    event Transfer(\n        address indexed _from,\n        address indexed _to,\n        uint _tokenId\n    );\n\n    event Approval(\n        address indexed _owner,\n        address indexed _approved,\n        uint _tokenId\n    );\n\n    function FreeCoin() public {\n        name   = \"FreeCoin\";\n        symbol = \"FREE\";\n\n        _totalSupply = 0;\n        maxSupply    = 1000000; // 1M;\n\n        distributionInterval = 2; // num blocks\n\n        // start faucet 3 blocks from now (current + 1 + distributionInterval)\n        lastDistributionBlockNum = block.number + 1;\n    }\n\n    // ERC721 spec compliant functions ///////////////////////////////////////////////////////////////////////\n\n    function totalSupply() public constant returns (uint) {\n        return _totalSupply;\n    }\n\n    // inefficient, avoid calling on-chain\n    function balanceOf(address _owner) public constant returns (uint _balance) {\n        for (uint id = 0; id < _totalSupply; id++) {\n            if (ownerByTokenId[id] == _owner) {\n                _balance += 1;\n            }\n        }\n    }\n\n    function ownerOf(uint _tokenId) public constant returns (address _owner) {\n        require(_tokenId < _totalSupply);\n\n        return ownerByTokenId[_tokenId];\n    }\n\n    // todo: think there are some other requirements\n    function approve(address _to, uint256 _tokenId) public {\n        require(msg.sender == ownerOf(_tokenId));\n\n        address previousApproval = approvals[_tokenId];\n        approvals[_tokenId] = _to;\n\n        // note: the only case where we don't send an event is when\n        // previous state was '0', and next state is '0'\n        if (_to != address(0) || previousApproval != 0) {\n            Approval(msg.sender, _to, _tokenId);\n        }\n    }\n\n    function takeOwnership(uint256 _tokenId) public {\n        require(ownerOf(_tokenId) != msg.sender);\n        require(approvals[_tokenId] == msg.sender);\n\n        address previousApproval = approvals[_tokenId];\n        approvals[_tokenId] = address(0);\n\n        Transfer(previousApproval, msg.sender, _tokenId);\n    }\n\n    function transfer(address _to, uint _tokenId) public {\n        require(msg.sender == ownerOf(_tokenId));\n        require(_to != address(0));\n\n        approvals[_tokenId] = address(0);\n        ownerByTokenId[_tokenId] = _to;\n\n        Transfer(msg.sender, _to, _tokenId);\n    }\n\n    // todo: very inefficient, see how other contracts handle this\n    function tokenOfOwnerByIndex(address _owner, uint256 _index) public constant returns (uint _tokenId) {\n        uint current = 0;\n\n        // todo: cleanup\n        for (uint id = 0; id < _totalSupply; id++) {\n            if (ownerByTokenId[id] == _owner) {\n                current += 1;\n                if (current == _index) {\n                    _tokenId = current;\n                    break;\n                }\n            }\n        }\n    }\n\n    function tokenMetadata(uint256 _tokenId) public constant returns (string _infoUrl) {\n        // todo\n        return \"\";\n    }\n\n    // FreeCoin functionality ////////////////////////////////////////////////////////////////////////////////\n\n    // todo: needs to only be accessible by owner\n    function registerAddresses(address[] addresses) public onlyOwner {\n        for (uint i = 0; i < addresses.length; i++) {\n            // todo: enforce uniqueness?\n            registeredAddresses.push(addresses[i]);\n        }\n    }\n\n    // note: this function is public, anyone can call it\n    // the internal logic ensures that tokens will only be distributed under correct conditions\n    function distributeToken() public {\n        uint tokensToDistribute = (block.number - lastDistributionBlockNum) / distributionInterval;\n\n        require(tokensToDistribute > 0);\n\n        // todo: if totalSupply == maxSupply see if any tokens have been returned to contract\n        require(_totalSupply < maxSupply);\n\n        lastDistributionBlockNum = block.number;\n\n        // note: this allows contract to distribute multiple token in cases when\n        // multiple distribution periods have elapsed since contract was last called\n        while (tokensToDistribute > 0) {\n            uint blockNum = block.number - 1 - ((tokensToDistribute - 1) * distributionInterval);\n            uint index = randFromBlock(blockNum, registeredAddresses.length);\n            address addr = registeredAddresses[index];\n\n            ownerByTokenId.push(addr);\n            Transfer(address(0), addr, _totalSupply);\n\n            _totalSupply += 1;\n\n            tokensToDistribute--;\n        }\n    }\n\n    // note: using previous block hashes as a source of randomness exposes this token\n    // to a few potential security flaws (namely, miners could theoretically game the distribution)\n    // however, this is a free coin! we expect low or no value for these tokens\n    function randFromBlock(uint blockNum, uint max) private view returns (uint) {\n        bytes32 prevHash = block.blockhash(blockNum);\n        return uint(prevHash) % max;\n    }\n\n    // dev only, for stepping through blocks\n    function blockNum() public returns (uint) {\n        return block.number;\n    }\n\n    // todo: kill contract\n    // todo: withdraw any funds accidentally sent to contract\n}\n",
  "sourcePath": "/Users/tyler/dev/freecoin/contracts/FreeCoin.sol",
  "compiler": {
    "name": "solc",
    "version": "0.4.18+commit.9cf6e910.Emscripten.clang"
  },
  "schemaVersion": "1.0.1",
  "updatedAt": "2018-01-08T00:39:45.647Z"
}